{
  "_format": "hh-sol-artifact-1",
  "contractName": "TimeLockVault",
  "sourceName": "contracts/TimeLockVault.sol",
  "abi": [
    {
      "inputs": [],
      "stateMutability": "nonpayable",
      "type": "constructor"
    },
    {
      "inputs": [
        {
          "internalType": "address",
          "name": "owner",
          "type": "address"
        }
      ],
      "name": "OwnableInvalidOwner",
      "type": "error"
    },
    {
      "inputs": [
        {
          "internalType": "address",
          "name": "account",
          "type": "address"
        }
      ],
      "name": "OwnableUnauthorizedAccount",
      "type": "error"
    },
    {
      "anonymous": false,
      "inputs": [
        {
          "indexed": true,
          "internalType": "address",
          "name": "user",
          "type": "address"
        },
        {
          "indexed": false,
          "internalType": "uint256",
          "name": "amount",
          "type": "uint256"
        },
        {
          "indexed": false,
          "internalType": "uint64",
          "name": "unlockAt",
          "type": "uint64"
        }
      ],
      "name": "Locked",
      "type": "event"
    },
    {
      "anonymous": false,
      "inputs": [
        {
          "indexed": true,
          "internalType": "address",
          "name": "previousOwner",
          "type": "address"
        },
        {
          "indexed": true,
          "internalType": "address",
          "name": "newOwner",
          "type": "address"
        }
      ],
      "name": "OwnershipTransferred",
      "type": "event"
    },
    {
      "anonymous": false,
      "inputs": [
        {
          "indexed": true,
          "internalType": "address",
          "name": "user",
          "type": "address"
        },
        {
          "indexed": false,
          "internalType": "uint256",
          "name": "amount",
          "type": "uint256"
        }
      ],
      "name": "Withdrawn",
      "type": "event"
    },
    {
      "inputs": [
        {
          "internalType": "uint64",
          "name": "unlockAt",
          "type": "uint64"
        }
      ],
      "name": "createLock",
      "outputs": [],
      "stateMutability": "payable",
      "type": "function"
    },
    {
      "inputs": [
        {
          "internalType": "address",
          "name": "user",
          "type": "address"
        }
      ],
      "name": "getLock",
      "outputs": [
        {
          "internalType": "uint256",
          "name": "amount",
          "type": "uint256"
        },
        {
          "internalType": "uint64",
          "name": "unlockAt",
          "type": "uint64"
        },
        {
          "internalType": "bool",
          "name": "withdrawn",
          "type": "bool"
        }
      ],
      "stateMutability": "view",
      "type": "function"
    },
    {
      "inputs": [
        {
          "internalType": "address",
          "name": "",
          "type": "address"
        }
      ],
      "name": "locks",
      "outputs": [
        {
          "internalType": "uint256",
          "name": "amount",
          "type": "uint256"
        },
        {
          "internalType": "uint64",
          "name": "unlockAt",
          "type": "uint64"
        },
        {
          "internalType": "bool",
          "name": "withdrawn",
          "type": "bool"
        }
      ],
      "stateMutability": "view",
      "type": "function"
    },
    {
      "inputs": [],
      "name": "owner",
      "outputs": [
        {
          "internalType": "address",
          "name": "",
          "type": "address"
        }
      ],
      "stateMutability": "view",
      "type": "function"
    },
    {
      "inputs": [],
      "name": "renounceOwnership",
      "outputs": [],
      "stateMutability": "nonpayable",
      "type": "function"
    },
    {
      "inputs": [
        {
          "internalType": "uint256",
          "name": "amount",
          "type": "uint256"
        }
      ],
      "name": "rescue",
      "outputs": [],
      "stateMutability": "nonpayable",
      "type": "function"
    },
    {
      "inputs": [
        {
          "internalType": "address",
          "name": "newOwner",
          "type": "address"
        }
      ],
      "name": "transferOwnership",
      "outputs": [],
      "stateMutability": "nonpayable",
      "type": "function"
    },
    {
      "inputs": [],
      "name": "withdraw",
      "outputs": [],
      "stateMutability": "nonpayable",
      "type": "function"
    }
  ],
  "bytecode": "0x608060405234801561001057600080fd5b50338061003757604051631e4fbdf760e01b81526000600482015260240160405180910390fd5b61004081610046565b50610096565b600080546001600160a01b038381166001600160a01b0319831681178455604051919092169283917f8be0079c531659141344cd1fd0a4f28419497f9722a3daafe3b4186f6b6457e09190a35050565b610528806100a56000396000f3fe60806040526004361061007b5760003560e01c80636b9db4e61161004e5780636b9db4e61461013f578063715018a6146101af5780638da5cb5b146101c4578063f2fde38b146101ec57600080fd5b8063024e3856146100805780633ccfd60b146100955780635de9a137146100aa5780636ac053ad1461011f575b600080fd5b61009361008e36600461047f565b61020c565b005b3480156100a157600080fd5b506100936102af565b3480156100b657600080fd5b506100f46100c53660046104b0565b6001602081905260009182526040909120805491015467ffffffffffffffff811690600160401b900460ff1683565b6040805193845267ffffffffffffffff90921660208401521515908201526060015b60405180910390f35b34801561012b57600080fd5b5061009361013a3660046104d9565b6103a8565b34801561014b57600080fd5b506100f461015a3660046104b0565b6001600160a01b031660009081526001602081815260409283902083516060810185528154808252919093015467ffffffffffffffff8116928401839052600160401b900460ff161515929093018290529192565b3480156101bb57600080fd5b506100936103b3565b3480156101d057600080fd5b506000546040516001600160a01b039091168152602001610116565b3480156101f857600080fd5b506100936102073660046104b0565b6103c7565b604080516060810182523480825267ffffffffffffffff84811660208085018281526000868801818152338083526001808652928a902098518955925197909101805491511515600160401b0268ffffffffffffffffff1990921697909516969096179590951790925584519283529082015290917feb70b889cfbcb8d507e59cdc8c4163505d3a4f597cb0edd649d3b13458353b5b910160405180910390a250565b3360008181526001602081905260408083208054928101805468ff00000000000000001916600160401b179055838155905190939192919083908381818185875af1925050503d8060008114610321576040519150601f19603f3d011682016040523d82523d6000602084013e610326565b606091505b505090508061036e5760405162461bcd60e51b815260206004820152600f60248201526e1514905394d1915497d19052531151608a1b60448201526064015b60405180910390fd5b60405182815233907f7084f5476618d8e60b11ef0d7d3f06914655adb8793e28ff7f018d4c76d505d59060200160405180910390a2505050565b6103b0610402565b50565b6103bb610402565b6103c5600061042f565b565b6103cf610402565b6001600160a01b0381166103f957604051631e4fbdf760e01b815260006004820152602401610365565b6103b08161042f565b6000546001600160a01b031633146103c55760405163118cdaa760e01b8152336004820152602401610365565b600080546001600160a01b038381166001600160a01b0319831681178455604051919092169283917f8be0079c531659141344cd1fd0a4f28419497f9722a3daafe3b4186f6b6457e09190a35050565b60006020828403121561049157600080fd5b813567ffffffffffffffff811681146104a957600080fd5b9392505050565b6000602082840312156104c257600080fd5b81356001600160a01b03811681146104a957600080fd5b6000602082840312156104eb57600080fd5b503591905056fea2646970667358221220fdf3f93e83adc81b430d4c21dadbe5b46717d932542e13555fa8f21e822e5ec664736f6c63430008180033",
  "linkReferences": {},
  "deployedLinkReferences": {}
}