{
  "_format": "hh-sol-artifact-1",
  "contractName": "VotingDAO",
  "sourceName": "contracts/VotingDAO.sol",
  "abi": [
    {
      "anonymous": false,
      "inputs": [
        {
          "indexed": false,
          "internalType": "uint256",
          "name": "id",
          "type": "uint256"
        },
        {
          "indexed": false,
          "internalType": "string",
          "name": "description",
          "type": "string"
        }
      ],
      "name": "ProposalCreated",
      "type": "event"
    },
    {
      "anonymous": false,
      "inputs": [
        {
          "indexed": false,
          "internalType": "uint256",
          "name": "proposalId",
          "type": "uint256"
        },
        {
          "indexed": false,
          "internalType": "address",
          "name": "voter",
          "type": "address"
        }
      ],
      "name": "Voted",
      "type": "event"
    },
    {
      "inputs": [
        {
          "internalType": "string",
          "name": "description",
          "type": "string"
        }
      ],
      "name": "createProposal",
      "outputs": [],
      "stateMutability": "nonpayable",
      "type": "function"
    },
    {
      "inputs": [
        {
          "internalType": "uint256",
          "name": "proposalId",
          "type": "uint256"
        }
      ],
      "name": "endProposal",
      "outputs": [],
      "stateMutability": "nonpayable",
      "type": "function"
    },
    {
      "inputs": [
        {
          "internalType": "uint256",
          "name": "proposalId",
          "type": "uint256"
        }
      ],
      "name": "getProposal",
      "outputs": [
        {
          "internalType": "string",
          "name": "description",
          "type": "string"
        },
        {
          "internalType": "uint256",
          "name": "voteCount",
          "type": "uint256"
        },
        {
          "internalType": "bool",
          "name": "active",
          "type": "bool"
        }
      ],
      "stateMutability": "view",
      "type": "function"
    },
    {
      "inputs": [],
      "name": "getProposalCount",
      "outputs": [
        {
          "internalType": "uint256",
          "name": "",
          "type": "uint256"
        }
      ],
      "stateMutability": "view",
      "type": "function"
    },
    {
      "inputs": [],
      "name": "getWinningProposal",
      "outputs": [
        {
          "internalType": "uint256",
          "name": "winningId",
          "type": "uint256"
        }
      ],
      "stateMutability": "view",
      "type": "function"
    },
    {
      "inputs": [
        {
          "internalType": "uint256",
          "name": "",
          "type": "uint256"
        },
        {
          "internalType": "address",
          "name": "",
          "type": "address"
        }
      ],
      "name": "hasVoted",
      "outputs": [
        {
          "internalType": "bool",
          "name": "",
          "type": "bool"
        }
      ],
      "stateMutability": "view",
      "type": "function"
    },
    {
      "inputs": [
        {
          "internalType": "uint256",
          "name": "proposalId",
          "type": "uint256"
        },
        {
          "internalType": "address",
          "name": "voter",
          "type": "address"
        }
      ],
      "name": "hasVotedOnProposal",
      "outputs": [
        {
          "internalType": "bool",
          "name": "",
          "type": "bool"
        }
      ],
      "stateMutability": "view",
      "type": "function"
    },
    {
      "inputs": [
        {
          "internalType": "uint256",
          "name": "",
          "type": "uint256"
        }
      ],
      "name": "proposals",
      "outputs": [
        {
          "internalType": "string",
          "name": "description",
          "type": "string"
        },
        {
          "internalType": "uint256",
          "name": "voteCount",
          "type": "uint256"
        },
        {
          "internalType": "bool",
          "name": "active",
          "type": "bool"
        }
      ],
      "stateMutability": "view",
      "type": "function"
    },
    {
      "inputs": [
        {
          "internalType": "uint256",
          "name": "proposalId",
          "type": "uint256"
        }
      ],
      "name": "vote",
      "outputs": [],
      "stateMutability": "nonpayable",
      "type": "function"
    }
  ],
  "bytecode": "0x608060405234801561001057600080fd5b50610afa806100206000396000f3fe608060405234801561001057600080fd5b50600436106100935760003560e01c8063600303d811610066578063600303d814610129578063a07bd4001461013c578063a51346201461014f578063c08cc02d14610165578063c7f758a81461016d57600080fd5b80630121b93f14610098578063013cf08b146100ad57806343859632146100d857806349c2a1a614610116575b600080fd5b6100ab6100a6366004610747565b610180565b005b6100c06100bb366004610747565b610305565b6040516100cf939291906107a6565b60405180910390f35b6101066100e63660046107d0565b600160209081526000928352604080842090915290825290205460ff1681565b60405190151581526020016100cf565b6100ab610124366004610822565b6103cb565b6101066101373660046107d0565b61048e565b6100ab61014a366004610747565b6104bb565b610157610584565b6040519081526020016100cf565b600054610157565b6100c061017b366004610747565b61062b565b60005481106101aa5760405162461bcd60e51b81526004016101a1906108d3565b60405180910390fd5b600081815481106101bd576101bd610900565b600091825260209091206002600390920201015460ff166102165760405162461bcd60e51b815260206004820152601360248201527250524f504f53414c5f4e4f545f41435449564560681b60448201526064016101a1565b600081815260016020908152604080832033845290915290205460ff16156102705760405162461bcd60e51b815260206004820152600d60248201526c1053149150511657d593d51151609a1b60448201526064016101a1565b60008181526001602081815260408084203385529091528220805460ff191690911790558054829081106102a6576102a6610900565b6000918252602082206001600390920201018054916102c48361092c565b9091555050604080518281523360208201527f030b0f8dcd86a031eddb071f91882edeac8173663ba775713b677b42b51be44b91015b60405180910390a150565b6000818154811061031557600080fd5b906000526020600020906003020160009150905080600001805461033890610945565b80601f016020809104026020016040519081016040528092919081815260200182805461036490610945565b80156103b15780601f10610386576101008083540402835291602001916103b1565b820191906000526020600020905b81548152906001019060200180831161039457829003601f168201915b50505050600183015460029093015491929160ff16905083565b604080516060810182528281526000602082018190526001928201839052805492830181558052805190916003027f290decd9548b62a8d60345a988386fc84ba6bc95484008f6362f93160ef3e5630190819061042890826109d0565b5060208201516001828101919091556040909201516002909101805460ff19169115159190911790556000547f9c770c289ab5bf7e57cb1d23c8ceae993aea46eb64847072fd3d78ca60d3e4329161047f91610a90565b826040516102fa929190610aa3565b60008281526001602090815260408083206001600160a01b038516845290915290205460ff165b92915050565b60005481106104dc5760405162461bcd60e51b81526004016101a1906108d3565b600081815481106104ef576104ef610900565b600091825260209091206002600390920201015460ff1661054b5760405162461bcd60e51b8152602060048201526016602482015275141493d413d4d05317d053149150511657d15391115160521b60448201526064016101a1565b600080828154811061055f5761055f610900565b60009182526020909120600390910201600201805460ff191691151591909117905550565b6000196000805b60005481101561062657600081815481106105a8576105a8610900565b600091825260209091206002600390920201015460ff1680156105ee575081600082815481106105da576105da610900565b906000526020600020906003020160010154115b1561061e576000818154811061060657610606610900565b90600052602060002090600302016001015491508092505b60010161058b565b505090565b606060008060008054905084106106545760405162461bcd60e51b81526004016101a1906108d3565b600080858154811061066857610668610900565b906000526020600020906003020160405180606001604052908160008201805461069190610945565b80601f01602080910402602001604051908101604052809291908181526020018280546106bd90610945565b801561070a5780601f106106df5761010080835404028352916020019161070a565b820191906000526020600020905b8154815290600101906020018083116106ed57829003601f168201915b5050509183525050600182015460208083019190915260029092015460ff1615156040918201528251918301519201519097919650945092505050565b60006020828403121561075957600080fd5b5035919050565b6000815180845260005b818110156107865760208185018101518683018201520161076a565b506000602082860101526020601f19601f83011685010191505092915050565b6060815260006107b96060830186610760565b602083019490945250901515604090910152919050565b600080604083850312156107e357600080fd5b8235915060208301356001600160a01b038116811461080157600080fd5b809150509250929050565b634e487b7160e01b600052604160045260246000fd5b60006020828403121561083457600080fd5b813567ffffffffffffffff8082111561084c57600080fd5b818401915084601f83011261086057600080fd5b8135818111156108725761087261080c565b604051601f8201601f19908116603f0116810190838211818310171561089a5761089a61080c565b816040528281528760208487010111156108b357600080fd5b826020860160208301376000928101602001929092525095945050505050565b6020808252601390820152721253959053125117d41493d413d4d05317d251606a1b604082015260600190565b634e487b7160e01b600052603260045260246000fd5b634e487b7160e01b600052601160045260246000fd5b60006001820161093e5761093e610916565b5060010190565b600181811c9082168061095957607f821691505b60208210810361097957634e487b7160e01b600052602260045260246000fd5b50919050565b601f8211156109cb576000816000526020600020601f850160051c810160208610156109a85750805b601f850160051c820191505b818110156109c7578281556001016109b4565b5050505b505050565b815167ffffffffffffffff8111156109ea576109ea61080c565b6109fe816109f88454610945565b8461097f565b602080601f831160018114610a335760008415610a1b5750858301515b600019600386901b1c1916600185901b1785556109c7565b600085815260208120601f198616915b82811015610a6257888601518255948401946001909101908401610a43565b5085821015610a805787850151600019600388901b60f8161c191681555b5050505050600190811b01905550565b818103818111156104b5576104b5610916565b828152604060208201526000610abc6040830184610760565b94935050505056fea264697066735822122012766a8f1b58b784a9c1665c2fa8d1873b045549f76c42ffd90be0d08f68ce9264736f6c63430008180033",
  "linkReferences": {},
  "deployedLinkReferences": {}
}